{
  "_format": "hh-sol-artifact-1",
  "contractName": "GrabbyGrackles",
  "sourceName": "contracts/GrackleNFT.sol",
  "abi": [
    {
      "inputs": [],
      "stateMutability": "nonpayable",
      "type": "constructor"
    },
    {
      "anonymous": false,
      "inputs": [
        {
          "indexed": true,
          "internalType": "address",
          "name": "owner",
          "type": "address"
        },
        {
          "indexed": true,
          "internalType": "address",
          "name": "approved",
          "type": "address"
        },
        {
          "indexed": true,
          "internalType": "uint256",
          "name": "tokenId",
          "type": "uint256"
        }
      ],
      "name": "Approval",
      "type": "event"
    },
    {
      "anonymous": false,
      "inputs": [
        {
          "indexed": true,
          "internalType": "address",
          "name": "owner",
          "type": "address"
        },
        {
          "indexed": true,
          "internalType": "address",
          "name": "operator",
          "type": "address"
        },
        {
          "indexed": false,
          "internalType": "bool",
          "name": "approved",
          "type": "bool"
        }
      ],
      "name": "ApprovalForAll",
      "type": "event"
    },
    {
      "anonymous": false,
      "inputs": [
        {
          "indexed": true,
          "internalType": "address",
          "name": "previousOwner",
          "type": "address"
        },
        {
          "indexed": true,
          "internalType": "address",
          "name": "newOwner",
          "type": "address"
        }
      ],
      "name": "OwnershipTransferred",
      "type": "event"
    },
    {
      "anonymous": false,
      "inputs": [
        {
          "indexed": true,
          "internalType": "address",
          "name": "from",
          "type": "address"
        },
        {
          "indexed": true,
          "internalType": "address",
          "name": "to",
          "type": "address"
        },
        {
          "indexed": true,
          "internalType": "uint256",
          "name": "tokenId",
          "type": "uint256"
        }
      ],
      "name": "Transfer",
      "type": "event"
    },
    {
      "inputs": [
        {
          "internalType": "address",
          "name": "to",
          "type": "address"
        },
        {
          "internalType": "uint256",
          "name": "tokenId",
          "type": "uint256"
        }
      ],
      "name": "approve",
      "outputs": [],
      "stateMutability": "nonpayable",
      "type": "function"
    },
    {
      "inputs": [
        {
          "internalType": "address",
          "name": "owner",
          "type": "address"
        }
      ],
      "name": "balanceOf",
      "outputs": [
        {
          "internalType": "uint256",
          "name": "",
          "type": "uint256"
        }
      ],
      "stateMutability": "view",
      "type": "function"
    },
    {
      "inputs": [
        {
          "internalType": "uint256",
          "name": "tokenId",
          "type": "uint256"
        }
      ],
      "name": "getApproved",
      "outputs": [
        {
          "internalType": "address",
          "name": "",
          "type": "address"
        }
      ],
      "stateMutability": "view",
      "type": "function"
    },
    {
      "inputs": [
        {
          "internalType": "address",
          "name": "owner",
          "type": "address"
        },
        {
          "internalType": "address",
          "name": "operator",
          "type": "address"
        }
      ],
      "name": "isApprovedForAll",
      "outputs": [
        {
          "internalType": "bool",
          "name": "",
          "type": "bool"
        }
      ],
      "stateMutability": "view",
      "type": "function"
    },
    {
      "inputs": [
        {
          "internalType": "address",
          "name": "recipient",
          "type": "address"
        },
        {
          "internalType": "string",
          "name": "uri",
          "type": "string"
        }
      ],
      "name": "mint",
      "outputs": [
        {
          "internalType": "uint256",
          "name": "",
          "type": "uint256"
        }
      ],
      "stateMutability": "nonpayable",
      "type": "function"
    },
    {
      "inputs": [],
      "name": "name",
      "outputs": [
        {
          "internalType": "string",
          "name": "",
          "type": "string"
        }
      ],
      "stateMutability": "view",
      "type": "function"
    },
    {
      "inputs": [],
      "name": "owner",
      "outputs": [
        {
          "internalType": "address",
          "name": "",
          "type": "address"
        }
      ],
      "stateMutability": "view",
      "type": "function"
    },
    {
      "inputs": [
        {
          "internalType": "uint256",
          "name": "tokenId",
          "type": "uint256"
        }
      ],
      "name": "ownerOf",
      "outputs": [
        {
          "internalType": "address",
          "name": "",
          "type": "address"
        }
      ],
      "stateMutability": "view",
      "type": "function"
    },
    {
      "inputs": [],
      "name": "renounceOwnership",
      "outputs": [],
      "stateMutability": "nonpayable",
      "type": "function"
    },
    {
      "inputs": [
        {
          "internalType": "address",
          "name": "from",
          "type": "address"
        },
        {
          "internalType": "address",
          "name": "to",
          "type": "address"
        },
        {
          "internalType": "uint256",
          "name": "tokenId",
          "type": "uint256"
        }
      ],
      "name": "safeTransferFrom",
      "outputs": [],
      "stateMutability": "nonpayable",
      "type": "function"
    },
    {
      "inputs": [
        {
          "internalType": "address",
          "name": "from",
          "type": "address"
        },
        {
          "internalType": "address",
          "name": "to",
          "type": "address"
        },
        {
          "internalType": "uint256",
          "name": "tokenId",
          "type": "uint256"
        },
        {
          "internalType": "bytes",
          "name": "_data",
          "type": "bytes"
        }
      ],
      "name": "safeTransferFrom",
      "outputs": [],
      "stateMutability": "nonpayable",
      "type": "function"
    },
    {
      "inputs": [
        {
          "internalType": "address",
          "name": "operator",
          "type": "address"
        },
        {
          "internalType": "bool",
          "name": "approved",
          "type": "bool"
        }
      ],
      "name": "setApprovalForAll",
      "outputs": [],
      "stateMutability": "nonpayable",
      "type": "function"
    },
    {
      "inputs": [
        {
          "internalType": "bytes4",
          "name": "interfaceId",
          "type": "bytes4"
        }
      ],
      "name": "supportsInterface",
      "outputs": [
        {
          "internalType": "bool",
          "name": "",
          "type": "bool"
        }
      ],
      "stateMutability": "view",
      "type": "function"
    },
    {
      "inputs": [],
      "name": "symbol",
      "outputs": [
        {
          "internalType": "string",
          "name": "",
          "type": "string"
        }
      ],
      "stateMutability": "view",
      "type": "function"
    },
    {
      "inputs": [
        {
          "internalType": "uint256",
          "name": "tokenId",
          "type": "uint256"
        }
      ],
      "name": "tokenURI",
      "outputs": [
        {
          "internalType": "string",
          "name": "",
          "type": "string"
        }
      ],
      "stateMutability": "view",
      "type": "function"
    },
    {
      "inputs": [
        {
          "internalType": "address",
          "name": "from",
          "type": "address"
        },
        {
          "internalType": "address",
          "name": "to",
          "type": "address"
        },
        {
          "internalType": "uint256",
          "name": "tokenId",
          "type": "uint256"
        }
      ],
      "name": "transferFrom",
      "outputs": [],
      "stateMutability": "nonpayable",
      "type": "function"
    },
    {
      "inputs": [
        {
          "internalType": "address",
          "name": "newOwner",
          "type": "address"
        }
      ],
      "name": "transferOwnership",
      "outputs": [],
      "stateMutability": "nonpayable",
      "type": "function"
    }
  ],
  "bytecode": "0x60806040523480156200001157600080fd5b50604080518082018252600e81526d477261626279477261636b6c657360901b60208083019182528351808501909452600584526411d1d3919560da1b9084015281519192916200006591600091620000f4565b5080516200007b906001906020840190620000f4565b50505062000098620000926200009e60201b60201c565b620000a2565b620001d7565b3390565b600680546001600160a01b038381166001600160a01b0319831681179093556040519116919082907f8be0079c531659141344cd1fd0a4f28419497f9722a3daafe3b4186f6b6457e090600090a35050565b82805462000102906200019a565b90600052602060002090601f01602090048101928262000126576000855562000171565b82601f106200014157805160ff191683800117855562000171565b8280016001018555821562000171579182015b828111156200017157825182559160200191906001019062000154565b506200017f92915062000183565b5090565b5b808211156200017f576000815560010162000184565b600181811c90821680620001af57607f821691505b60208210811415620001d157634e487b7160e01b600052602260045260246000fd5b50919050565b61157e80620001e76000396000f3fe608060405234801561001057600080fd5b506004361061010b5760003560e01c8063715018a6116100a2578063b88d4fde11610071578063b88d4fde1461021b578063c87b56dd1461022e578063d0def52114610241578063e985e9c514610254578063f2fde38b1461029057600080fd5b8063715018a6146101e75780638da5cb5b146101ef57806395d89b4114610200578063a22cb4651461020857600080fd5b806323b872dd116100de57806323b872dd1461018d57806342842e0e146101a05780636352211e146101b357806370a08231146101c657600080fd5b806301ffc9a71461011057806306fdde0314610138578063081812fc1461014d578063095ea7b314610178575b600080fd5b61012361011e3660046112d9565b6102a3565b60405190151581526020015b60405180910390f35b6101406102f5565b60405161012f91906113b1565b61016061015b366004611311565b610387565b6040516001600160a01b03909116815260200161012f565b61018b6101863660046112b0565b610421565b005b61018b61019b366004611163565b610537565b61018b6101ae366004611163565b610568565b6101606101c1366004611311565b610583565b6101d96101d4366004611117565b6105fa565b60405190815260200161012f565b61018b610681565b6006546001600160a01b0316610160565b6101406106b7565b61018b610216366004611217565b6106c6565b61018b61022936600461119e565b6106d5565b61014061023c366004611311565b61070d565b6101d961024f366004611251565b61082b565b610123610262366004611131565b6001600160a01b03918216600090815260056020908152604080832093909416825291909152205460ff1690565b61018b61029e366004611117565b61088e565b60006001600160e01b031982166380ac58cd60e01b14806102d457506001600160e01b03198216635b5e139f60e01b145b806102ef57506301ffc9a760e01b6001600160e01b03198316145b92915050565b606060008054610304906114cb565b80601f0160208091040260200160405190810160405280929190818152602001828054610330906114cb565b801561037d5780601f106103525761010080835404028352916020019161037d565b820191906000526020600020905b81548152906001019060200180831161036057829003601f168201915b5050505050905090565b6000818152600260205260408120546001600160a01b03166104055760405162461bcd60e51b815260206004820152602c60248201527f4552433732313a20617070726f76656420717565727920666f72206e6f6e657860448201526b34b9ba32b73a103a37b5b2b760a11b60648201526084015b60405180910390fd5b506000908152600460205260409020546001600160a01b031690565b600061042c82610583565b9050806001600160a01b0316836001600160a01b0316141561049a5760405162461bcd60e51b815260206004820152602160248201527f4552433732313a20617070726f76616c20746f2063757272656e74206f776e656044820152603960f91b60648201526084016103fc565b336001600160a01b03821614806104b657506104b68133610262565b6105285760405162461bcd60e51b815260206004820152603860248201527f4552433732313a20617070726f76652063616c6c6572206973206e6f74206f7760448201527f6e6572206e6f7220617070726f76656420666f7220616c6c000000000000000060648201526084016103fc565b6105328383610929565b505050565b6105413382610997565b61055d5760405162461bcd60e51b81526004016103fc9061144b565b610532838383610a8e565b610532838383604051806020016040528060008152506106d5565b6000818152600260205260408120546001600160a01b0316806102ef5760405162461bcd60e51b815260206004820152602960248201527f4552433732313a206f776e657220717565727920666f72206e6f6e657869737460448201526832b73a103a37b5b2b760b91b60648201526084016103fc565b60006001600160a01b0382166106655760405162461bcd60e51b815260206004820152602a60248201527f4552433732313a2062616c616e636520717565727920666f7220746865207a65604482015269726f206164647265737360b01b60648201526084016103fc565b506001600160a01b031660009081526003602052604090205490565b6006546001600160a01b031633146106ab5760405162461bcd60e51b81526004016103fc90611416565b6106b56000610c2a565b565b606060018054610304906114cb565b6106d1338383610c7c565b5050565b6106df3383610997565b6106fb5760405162461bcd60e51b81526004016103fc9061144b565b61070784848484610d4b565b50505050565b6000818152600260205260409020546060906001600160a01b031661078c5760405162461bcd60e51b815260206004820152602f60248201527f4552433732314d657461646174613a2055524920717565727920666f72206e6f60448201526e3732bc34b9ba32b73a103a37b5b2b760891b60648201526084016103fc565b600082815260086020526040812080546107a5906114cb565b80601f01602080910402602001604051908101604052809291908181526020018280546107d1906114cb565b801561081e5780601f106107f35761010080835404028352916020019161081e565b820191906000526020600020905b81548152906001019060200180831161080157829003601f168201915b5093979650505050505050565b6006546000906001600160a01b031633146108585760405162461bcd60e51b81526004016103fc90611416565b610866600780546001019055565b600061087160075490565b905061087d8482610d7e565b6108878184610ec0565b9392505050565b6006546001600160a01b031633146108b85760405162461bcd60e51b81526004016103fc90611416565b6001600160a01b03811661091d5760405162461bcd60e51b815260206004820152602660248201527f4f776e61626c653a206e6577206f776e657220697320746865207a65726f206160448201526564647265737360d01b60648201526084016103fc565b61092681610c2a565b50565b600081815260046020526040902080546001600160a01b0319166001600160a01b038416908117909155819061095e82610583565b6001600160a01b03167f8c5be1e5ebec7d5bd14f71427d1e84f3dd0314c0f7b2291e5b200ac8c7c3b92560405160405180910390a45050565b6000818152600260205260408120546001600160a01b0316610a105760405162461bcd60e51b815260206004820152602c60248201527f4552433732313a206f70657261746f7220717565727920666f72206e6f6e657860448201526b34b9ba32b73a103a37b5b2b760a11b60648201526084016103fc565b6000610a1b83610583565b9050806001600160a01b0316846001600160a01b03161480610a565750836001600160a01b0316610a4b84610387565b6001600160a01b0316145b80610a8657506001600160a01b0380821660009081526005602090815260408083209388168352929052205460ff165b949350505050565b826001600160a01b0316610aa182610583565b6001600160a01b031614610b055760405162461bcd60e51b815260206004820152602560248201527f4552433732313a207472616e736665722066726f6d20696e636f72726563742060448201526437bbb732b960d91b60648201526084016103fc565b6001600160a01b038216610b675760405162461bcd60e51b8152602060048201526024808201527f4552433732313a207472616e7366657220746f20746865207a65726f206164646044820152637265737360e01b60648201526084016103fc565b610b72600082610929565b6001600160a01b0383166000908152600360205260408120805460019290610b9b9084906114b4565b90915550506001600160a01b0382166000908152600360205260408120805460019290610bc990849061149c565b909155505060008181526002602052604080822080546001600160a01b0319166001600160a01b0386811691821790925591518493918716917fddf252ad1be2c89b69c2b068fc378daa952ba7f163c4a11628f55a4df523b3ef91a4505050565b600680546001600160a01b038381166001600160a01b0319831681179093556040519116919082907f8be0079c531659141344cd1fd0a4f28419497f9722a3daafe3b4186f6b6457e090600090a35050565b816001600160a01b0316836001600160a01b03161415610cde5760405162461bcd60e51b815260206004820152601960248201527f4552433732313a20617070726f766520746f2063616c6c65720000000000000060448201526064016103fc565b6001600160a01b03838116600081815260056020908152604080832094871680845294825291829020805460ff191686151590811790915591519182527f17307eab39ab6107e8899845ad3d59bd9653f200f220920489ca2b5937696c31910160405180910390a3505050565b610d56848484610a8e565b610d6284848484610edf565b6107075760405162461bcd60e51b81526004016103fc906113c4565b6001600160a01b038216610dd45760405162461bcd60e51b815260206004820181905260248201527f4552433732313a206d696e7420746f20746865207a65726f206164647265737360448201526064016103fc565b6000818152600260205260409020546001600160a01b031615610e395760405162461bcd60e51b815260206004820152601c60248201527f4552433732313a20746f6b656e20616c7265616479206d696e7465640000000060448201526064016103fc565b6001600160a01b0382166000908152600360205260408120805460019290610e6290849061149c565b909155505060008181526002602052604080822080546001600160a01b0319166001600160a01b03861690811790915590518392907fddf252ad1be2c89b69c2b068fc378daa952ba7f163c4a11628f55a4df523b3ef908290a45050565b6000828152600860209081526040909120825161053292840190610fec565b60006001600160a01b0384163b15610fe157604051630a85bd0160e11b81526001600160a01b0385169063150b7a0290610f23903390899088908890600401611374565b602060405180830381600087803b158015610f3d57600080fd5b505af1925050508015610f6d575060408051601f3d908101601f19168201909252610f6a918101906112f5565b60015b610fc7573d808015610f9b576040519150601f19603f3d011682016040523d82523d6000602084013e610fa0565b606091505b508051610fbf5760405162461bcd60e51b81526004016103fc906113c4565b805181602001fd5b6001600160e01b031916630a85bd0160e11b149050610a86565b506001949350505050565b828054610ff8906114cb565b90600052602060002090601f01602090048101928261101a5760008555611060565b82601f1061103357805160ff1916838001178555611060565b82800160010185558215611060579182015b82811115611060578251825591602001919060010190611045565b5061106c929150611070565b5090565b5b8082111561106c5760008155600101611071565b600067ffffffffffffffff808411156110a0576110a061151c565b604051601f8501601f19908116603f011681019082821181831017156110c8576110c861151c565b816040528093508581528686860111156110e157600080fd5b858560208301376000602087830101525050509392505050565b80356001600160a01b038116811461111257600080fd5b919050565b600060208284031215611128578081fd5b610887826110fb565b60008060408385031215611143578081fd5b61114c836110fb565b915061115a602084016110fb565b90509250929050565b600080600060608486031215611177578081fd5b611180846110fb565b925061118e602085016110fb565b9150604084013590509250925092565b600080600080608085870312156111b3578081fd5b6111bc856110fb565b93506111ca602086016110fb565b925060408501359150606085013567ffffffffffffffff8111156111ec578182fd5b8501601f810187136111fc578182fd5b61120b87823560208401611085565b91505092959194509250565b60008060408385031215611229578182fd5b611232836110fb565b915060208301358015158114611246578182fd5b809150509250929050565b60008060408385031215611263578182fd5b61126c836110fb565b9150602083013567ffffffffffffffff811115611287578182fd5b8301601f81018513611297578182fd5b6112a685823560208401611085565b9150509250929050565b600080604083850312156112c2578182fd5b6112cb836110fb565b946020939093013593505050565b6000602082840312156112ea578081fd5b813561088781611532565b600060208284031215611306578081fd5b815161088781611532565b600060208284031215611322578081fd5b5035919050565b60008151808452815b8181101561134e57602081850181015186830182015201611332565b8181111561135f5782602083870101525b50601f01601f19169290920160200192915050565b6001600160a01b03858116825284166020820152604081018390526080606082018190526000906113a790830184611329565b9695505050505050565b6020815260006108876020830184611329565b60208082526032908201527f4552433732313a207472616e7366657220746f206e6f6e20455243373231526560408201527131b2b4bb32b91034b6b83632b6b2b73a32b960711b606082015260800190565b6020808252818101527f4f776e61626c653a2063616c6c6572206973206e6f7420746865206f776e6572604082015260600190565b60208082526031908201527f4552433732313a207472616e736665722063616c6c6572206973206e6f74206f6040820152701ddb995c881b9bdc88185c1c1c9bdd9959607a1b606082015260800190565b600082198211156114af576114af611506565b500190565b6000828210156114c6576114c6611506565b500390565b600181811c908216806114df57607f821691505b6020821081141561150057634e487b7160e01b600052602260045260246000fd5b50919050565b634e487b7160e01b600052601160045260246000fd5b634e487b7160e01b600052604160045260246000fd5b6001600160e01b03198116811461092657600080fdfea2646970667358221220c7af2702d1c44b9a3dd6858f009c1c95cfb6b7ec3e2197ed8056fd73fa932a0164736f6c63430008040033",
  "linkReferences": {},
  "deployedLinkReferences": {}
}