{
  "_format": "hh-sol-artifact-1",
  "contractName": "GrabbyGrackles",
  "sourceName": "contracts/GrackleNFT.sol",
  "abi": [
    {
      "inputs": [],
      "stateMutability": "nonpayable",
      "type": "constructor"
    },
    {
      "anonymous": false,
      "inputs": [
        {
          "indexed": true,
          "internalType": "address",
          "name": "owner",
          "type": "address"
        },
        {
          "indexed": true,
          "internalType": "address",
          "name": "approved",
          "type": "address"
        },
        {
          "indexed": true,
          "internalType": "uint256",
          "name": "tokenId",
          "type": "uint256"
        }
      ],
      "name": "Approval",
      "type": "event"
    },
    {
      "anonymous": false,
      "inputs": [
        {
          "indexed": true,
          "internalType": "address",
          "name": "owner",
          "type": "address"
        },
        {
          "indexed": true,
          "internalType": "address",
          "name": "operator",
          "type": "address"
        },
        {
          "indexed": false,
          "internalType": "bool",
          "name": "approved",
          "type": "bool"
        }
      ],
      "name": "ApprovalForAll",
      "type": "event"
    },
    {
      "anonymous": false,
      "inputs": [
        {
          "indexed": true,
          "internalType": "address",
          "name": "previousOwner",
          "type": "address"
        },
        {
          "indexed": true,
          "internalType": "address",
          "name": "newOwner",
          "type": "address"
        }
      ],
      "name": "OwnershipTransferred",
      "type": "event"
    },
    {
      "anonymous": false,
      "inputs": [
        {
          "indexed": true,
          "internalType": "address",
          "name": "from",
          "type": "address"
        },
        {
          "indexed": true,
          "internalType": "address",
          "name": "to",
          "type": "address"
        },
        {
          "indexed": true,
          "internalType": "uint256",
          "name": "tokenId",
          "type": "uint256"
        }
      ],
      "name": "Transfer",
      "type": "event"
    },
    {
      "inputs": [
        {
          "internalType": "address",
          "name": "to",
          "type": "address"
        },
        {
          "internalType": "uint256",
          "name": "tokenId",
          "type": "uint256"
        }
      ],
      "name": "approve",
      "outputs": [],
      "stateMutability": "nonpayable",
      "type": "function"
    },
    {
      "inputs": [
        {
          "internalType": "address",
          "name": "owner",
          "type": "address"
        }
      ],
      "name": "balanceOf",
      "outputs": [
        {
          "internalType": "uint256",
          "name": "",
          "type": "uint256"
        }
      ],
      "stateMutability": "view",
      "type": "function"
    },
    {
      "inputs": [
        {
          "internalType": "uint256",
          "name": "tokenId",
          "type": "uint256"
        }
      ],
      "name": "buyNFT",
      "outputs": [],
      "stateMutability": "payable",
      "type": "function"
    },
    {
      "inputs": [
        {
          "internalType": "uint256",
          "name": "tokenId",
          "type": "uint256"
        }
      ],
      "name": "getApproved",
      "outputs": [
        {
          "internalType": "address",
          "name": "",
          "type": "address"
        }
      ],
      "stateMutability": "view",
      "type": "function"
    },
    {
      "inputs": [
        {
          "internalType": "uint256",
          "name": "tokenId",
          "type": "uint256"
        }
      ],
      "name": "getPrice",
      "outputs": [
        {
          "internalType": "uint256",
          "name": "",
          "type": "uint256"
        }
      ],
      "stateMutability": "view",
      "type": "function"
    },
    {
      "inputs": [
        {
          "internalType": "address",
          "name": "owner",
          "type": "address"
        },
        {
          "internalType": "address",
          "name": "operator",
          "type": "address"
        }
      ],
      "name": "isApprovedForAll",
      "outputs": [
        {
          "internalType": "bool",
          "name": "",
          "type": "bool"
        }
      ],
      "stateMutability": "view",
      "type": "function"
    },
    {
      "inputs": [
        {
          "internalType": "address",
          "name": "recipient",
          "type": "address"
        },
        {
          "internalType": "string",
          "name": "uri",
          "type": "string"
        }
      ],
      "name": "mint",
      "outputs": [
        {
          "internalType": "uint256",
          "name": "",
          "type": "uint256"
        }
      ],
      "stateMutability": "nonpayable",
      "type": "function"
    },
    {
      "inputs": [],
      "name": "name",
      "outputs": [
        {
          "internalType": "string",
          "name": "",
          "type": "string"
        }
      ],
      "stateMutability": "view",
      "type": "function"
    },
    {
      "inputs": [],
      "name": "owner",
      "outputs": [
        {
          "internalType": "address",
          "name": "",
          "type": "address"
        }
      ],
      "stateMutability": "view",
      "type": "function"
    },
    {
      "inputs": [
        {
          "internalType": "uint256",
          "name": "tokenId",
          "type": "uint256"
        }
      ],
      "name": "ownerOf",
      "outputs": [
        {
          "internalType": "address",
          "name": "",
          "type": "address"
        }
      ],
      "stateMutability": "view",
      "type": "function"
    },
    {
      "inputs": [],
      "name": "renounceOwnership",
      "outputs": [],
      "stateMutability": "nonpayable",
      "type": "function"
    },
    {
      "inputs": [
        {
          "internalType": "address",
          "name": "from",
          "type": "address"
        },
        {
          "internalType": "address",
          "name": "to",
          "type": "address"
        },
        {
          "internalType": "uint256",
          "name": "tokenId",
          "type": "uint256"
        }
      ],
      "name": "safeTransferFrom",
      "outputs": [],
      "stateMutability": "nonpayable",
      "type": "function"
    },
    {
      "inputs": [
        {
          "internalType": "address",
          "name": "from",
          "type": "address"
        },
        {
          "internalType": "address",
          "name": "to",
          "type": "address"
        },
        {
          "internalType": "uint256",
          "name": "tokenId",
          "type": "uint256"
        },
        {
          "internalType": "bytes",
          "name": "_data",
          "type": "bytes"
        }
      ],
      "name": "safeTransferFrom",
      "outputs": [],
      "stateMutability": "nonpayable",
      "type": "function"
    },
    {
      "inputs": [
        {
          "internalType": "address",
          "name": "operator",
          "type": "address"
        },
        {
          "internalType": "bool",
          "name": "approved",
          "type": "bool"
        }
      ],
      "name": "setApprovalForAll",
      "outputs": [],
      "stateMutability": "nonpayable",
      "type": "function"
    },
    {
      "inputs": [
        {
          "internalType": "uint256",
          "name": "tokenId",
          "type": "uint256"
        },
        {
          "internalType": "uint256",
          "name": "price",
          "type": "uint256"
        }
      ],
      "name": "setPrice",
      "outputs": [],
      "stateMutability": "nonpayable",
      "type": "function"
    },
    {
      "inputs": [
        {
          "internalType": "bytes4",
          "name": "interfaceId",
          "type": "bytes4"
        }
      ],
      "name": "supportsInterface",
      "outputs": [
        {
          "internalType": "bool",
          "name": "",
          "type": "bool"
        }
      ],
      "stateMutability": "view",
      "type": "function"
    },
    {
      "inputs": [],
      "name": "symbol",
      "outputs": [
        {
          "internalType": "string",
          "name": "",
          "type": "string"
        }
      ],
      "stateMutability": "view",
      "type": "function"
    },
    {
      "inputs": [
        {
          "internalType": "uint256",
          "name": "tokenId",
          "type": "uint256"
        }
      ],
      "name": "tokenURI",
      "outputs": [
        {
          "internalType": "string",
          "name": "",
          "type": "string"
        }
      ],
      "stateMutability": "view",
      "type": "function"
    },
    {
      "inputs": [
        {
          "internalType": "address",
          "name": "from",
          "type": "address"
        },
        {
          "internalType": "address",
          "name": "to",
          "type": "address"
        },
        {
          "internalType": "uint256",
          "name": "tokenId",
          "type": "uint256"
        }
      ],
      "name": "transferFrom",
      "outputs": [],
      "stateMutability": "nonpayable",
      "type": "function"
    },
    {
      "inputs": [
        {
          "internalType": "address",
          "name": "newOwner",
          "type": "address"
        }
      ],
      "name": "transferOwnership",
      "outputs": [],
      "stateMutability": "nonpayable",
      "type": "function"
    }
  ],
  "bytecode": "0x60806040523480156200001157600080fd5b50604080518082018252600e81526d477261626279477261636b6c657360901b60208083019182528351808501909452600584526411d1d3919560da1b9084015281519192916200006591600091620000f4565b5080516200007b906001906020840190620000f4565b50505062000098620000926200009e60201b60201c565b620000a2565b620001d7565b3390565b600680546001600160a01b038381166001600160a01b0319831681179093556040519116919082907f8be0079c531659141344cd1fd0a4f28419497f9722a3daafe3b4186f6b6457e090600090a35050565b82805462000102906200019a565b90600052602060002090601f01602090048101928262000126576000855562000171565b82601f106200014157805160ff191683800117855562000171565b8280016001018555821562000171579182015b828111156200017157825182559160200191906001019062000154565b506200017f92915062000183565b5090565b5b808211156200017f576000815560010162000184565b600181811c90821680620001af57607f821691505b60208210811415620001d157634e487b7160e01b600052602260045260246000fd5b50919050565b6118db80620001e76000396000f3fe60806040526004361061011f5760003560e01c80638da5cb5b116100a0578063d0def52111610064578063d0def5211461031e578063e75722301461033e578063e985e9c51461036b578063f2fde38b146103b4578063f7d97577146103d457600080fd5b80638da5cb5b1461028b57806395d89b41146102a9578063a22cb465146102be578063b88d4fde146102de578063c87b56dd146102fe57600080fd5b806342842e0e116100e757806342842e0e146101f557806351ed8288146102155780636352211e1461022857806370a0823114610248578063715018a61461027657600080fd5b806301ffc9a71461012457806306fdde0314610159578063081812fc1461017b578063095ea7b3146101b357806323b872dd146101d5575b600080fd5b34801561013057600080fd5b5061014461013f366004611615565b6103f4565b60405190151581526020015b60405180910390f35b34801561016557600080fd5b5061016e610446565b604051610150919061170e565b34801561018757600080fd5b5061019b61019636600461164d565b6104d8565b6040516001600160a01b039091168152602001610150565b3480156101bf57600080fd5b506101d36101ce3660046115ec565b610572565b005b3480156101e157600080fd5b506101d36101f036600461149f565b610688565b34801561020157600080fd5b506101d361021036600461149f565b6106b9565b6101d361022336600461164d565b6106d4565b34801561023457600080fd5b5061019b61024336600461164d565b610821565b34801561025457600080fd5b50610268610263366004611453565b610898565b604051908152602001610150565b34801561028257600080fd5b506101d361091f565b34801561029757600080fd5b506006546001600160a01b031661019b565b3480156102b557600080fd5b5061016e610955565b3480156102ca57600080fd5b506101d36102d9366004611553565b610964565b3480156102ea57600080fd5b506101d36102f93660046114da565b610973565b34801561030a57600080fd5b5061016e61031936600461164d565b6109ab565b34801561032a57600080fd5b5061026861033936600461158d565b610ac9565b34801561034a57600080fd5b5061026861035936600461164d565b60009081526009602052604090205490565b34801561037757600080fd5b5061014461038636600461146d565b6001600160a01b03918216600090815260056020908152604080832093909416825291909152205460ff1690565b3480156103c057600080fd5b506101d36103cf366004611453565b610b2c565b3480156103e057600080fd5b506101d36103ef366004611665565b610bc7565b60006001600160e01b031982166380ac58cd60e01b148061042557506001600160e01b03198216635b5e139f60e01b145b8061044057506301ffc9a760e01b6001600160e01b03198316145b92915050565b60606000805461045590611828565b80601f016020809104026020016040519081016040528092919081815260200182805461048190611828565b80156104ce5780601f106104a3576101008083540402835291602001916104ce565b820191906000526020600020905b8154815290600101906020018083116104b157829003601f168201915b5050505050905090565b6000818152600260205260408120546001600160a01b03166105565760405162461bcd60e51b815260206004820152602c60248201527f4552433732313a20617070726f76656420717565727920666f72206e6f6e657860448201526b34b9ba32b73a103a37b5b2b760a11b60648201526084015b60405180910390fd5b506000908152600460205260409020546001600160a01b031690565b600061057d82610821565b9050806001600160a01b0316836001600160a01b031614156105eb5760405162461bcd60e51b815260206004820152602160248201527f4552433732313a20617070726f76616c20746f2063757272656e74206f776e656044820152603960f91b606482015260840161054d565b336001600160a01b038216148061060757506106078133610386565b6106795760405162461bcd60e51b815260206004820152603860248201527f4552433732313a20617070726f76652063616c6c6572206973206e6f74206f7760448201527f6e6572206e6f7220617070726f76656420666f7220616c6c0000000000000000606482015260840161054d565b6106838383610c65565b505050565b6106923382610cd3565b6106ae5760405162461bcd60e51b815260040161054d906117a8565b610683838383610dca565b61068383838360405180602001604052806000815250610973565b6106dd81610821565b6001600160a01b0316734aa35719ea06feab07a349d9cf93ebe0ca77babd6001600160a01b0316146107775760405162461bcd60e51b815260206004820152603d60248201527f54686973204e465420686173206265656e20626f7567687420616c726561647960448201527f2c20706c656173652063686f6f7365206f746865727320746f20627579000000606482015260840161054d565b60008181526009602052604090205461078f33610898565b10156107d45760405162461bcd60e51b8152602060048201526014602482015273496e73756666696369656e742062616c616e636560601b604482015260640161054d565b60006107df82610821565b90506107ec813384610dca565b6040516001600160a01b038216903480156108fc02916000818181858888f19350505050158015610683573d6000803e3d6000fd5b6000818152600260205260408120546001600160a01b0316806104405760405162461bcd60e51b815260206004820152602960248201527f4552433732313a206f776e657220717565727920666f72206e6f6e657869737460448201526832b73a103a37b5b2b760b91b606482015260840161054d565b60006001600160a01b0382166109035760405162461bcd60e51b815260206004820152602a60248201527f4552433732313a2062616c616e636520717565727920666f7220746865207a65604482015269726f206164647265737360b01b606482015260840161054d565b506001600160a01b031660009081526003602052604090205490565b6006546001600160a01b031633146109495760405162461bcd60e51b815260040161054d90611773565b6109536000610f66565b565b60606001805461045590611828565b61096f338383610fb8565b5050565b61097d3383610cd3565b6109995760405162461bcd60e51b815260040161054d906117a8565b6109a584848484611087565b50505050565b6000818152600260205260409020546060906001600160a01b0316610a2a5760405162461bcd60e51b815260206004820152602f60248201527f4552433732314d657461646174613a2055524920717565727920666f72206e6f60448201526e3732bc34b9ba32b73a103a37b5b2b760891b606482015260840161054d565b60008281526008602052604081208054610a4390611828565b80601f0160208091040260200160405190810160405280929190818152602001828054610a6f90611828565b8015610abc5780601f10610a9157610100808354040283529160200191610abc565b820191906000526020600020905b815481529060010190602001808311610a9f57829003601f168201915b5093979650505050505050565b6006546000906001600160a01b03163314610af65760405162461bcd60e51b815260040161054d90611773565b610b04600780546001019055565b6000610b0f60075490565b9050610b1b84826110ba565b610b2581846111fc565b9392505050565b6006546001600160a01b03163314610b565760405162461bcd60e51b815260040161054d90611773565b6001600160a01b038116610bbb5760405162461bcd60e51b815260206004820152602660248201527f4f776e61626c653a206e6577206f776e657220697320746865207a65726f206160448201526564647265737360d01b606482015260840161054d565b610bc481610f66565b50565b6000610bd283610821565b90506001600160a01b0381163314610c525760405162461bcd60e51b815260206004820152603a60248201527f596f7520617265206e6f7420746865206f776e6572206f662074686973204e4660448201527f542c20796f752063616e27742073657420746865207072696365000000000000606482015260840161054d565b5060009182526009602052604090912055565b600081815260046020526040902080546001600160a01b0319166001600160a01b0384169081179091558190610c9a82610821565b6001600160a01b03167f8c5be1e5ebec7d5bd14f71427d1e84f3dd0314c0f7b2291e5b200ac8c7c3b92560405160405180910390a45050565b6000818152600260205260408120546001600160a01b0316610d4c5760405162461bcd60e51b815260206004820152602c60248201527f4552433732313a206f70657261746f7220717565727920666f72206e6f6e657860448201526b34b9ba32b73a103a37b5b2b760a11b606482015260840161054d565b6000610d5783610821565b9050806001600160a01b0316846001600160a01b03161480610d925750836001600160a01b0316610d87846104d8565b6001600160a01b0316145b80610dc257506001600160a01b0380821660009081526005602090815260408083209388168352929052205460ff165b949350505050565b826001600160a01b0316610ddd82610821565b6001600160a01b031614610e415760405162461bcd60e51b815260206004820152602560248201527f4552433732313a207472616e736665722066726f6d20696e636f72726563742060448201526437bbb732b960d91b606482015260840161054d565b6001600160a01b038216610ea35760405162461bcd60e51b8152602060048201526024808201527f4552433732313a207472616e7366657220746f20746865207a65726f206164646044820152637265737360e01b606482015260840161054d565b610eae600082610c65565b6001600160a01b0383166000908152600360205260408120805460019290610ed7908490611811565b90915550506001600160a01b0382166000908152600360205260408120805460019290610f059084906117f9565b909155505060008181526002602052604080822080546001600160a01b0319166001600160a01b0386811691821790925591518493918716917fddf252ad1be2c89b69c2b068fc378daa952ba7f163c4a11628f55a4df523b3ef91a4505050565b600680546001600160a01b038381166001600160a01b0319831681179093556040519116919082907f8be0079c531659141344cd1fd0a4f28419497f9722a3daafe3b4186f6b6457e090600090a35050565b816001600160a01b0316836001600160a01b0316141561101a5760405162461bcd60e51b815260206004820152601960248201527f4552433732313a20617070726f766520746f2063616c6c657200000000000000604482015260640161054d565b6001600160a01b03838116600081815260056020908152604080832094871680845294825291829020805460ff191686151590811790915591519182527f17307eab39ab6107e8899845ad3d59bd9653f200f220920489ca2b5937696c31910160405180910390a3505050565b611092848484610dca565b61109e8484848461121b565b6109a55760405162461bcd60e51b815260040161054d90611721565b6001600160a01b0382166111105760405162461bcd60e51b815260206004820181905260248201527f4552433732313a206d696e7420746f20746865207a65726f2061646472657373604482015260640161054d565b6000818152600260205260409020546001600160a01b0316156111755760405162461bcd60e51b815260206004820152601c60248201527f4552433732313a20746f6b656e20616c7265616479206d696e74656400000000604482015260640161054d565b6001600160a01b038216600090815260036020526040812080546001929061119e9084906117f9565b909155505060008181526002602052604080822080546001600160a01b0319166001600160a01b03861690811790915590518392907fddf252ad1be2c89b69c2b068fc378daa952ba7f163c4a11628f55a4df523b3ef908290a45050565b6000828152600860209081526040909120825161068392840190611328565b60006001600160a01b0384163b1561131d57604051630a85bd0160e11b81526001600160a01b0385169063150b7a029061125f9033908990889088906004016116d1565b602060405180830381600087803b15801561127957600080fd5b505af19250505080156112a9575060408051601f3d908101601f191682019092526112a691810190611631565b60015b611303573d8080156112d7576040519150601f19603f3d011682016040523d82523d6000602084013e6112dc565b606091505b5080516112fb5760405162461bcd60e51b815260040161054d90611721565b805181602001fd5b6001600160e01b031916630a85bd0160e11b149050610dc2565b506001949350505050565b82805461133490611828565b90600052602060002090601f016020900481019282611356576000855561139c565b82601f1061136f57805160ff191683800117855561139c565b8280016001018555821561139c579182015b8281111561139c578251825591602001919060010190611381565b506113a89291506113ac565b5090565b5b808211156113a857600081556001016113ad565b600067ffffffffffffffff808411156113dc576113dc611879565b604051601f8501601f19908116603f0116810190828211818310171561140457611404611879565b8160405280935085815286868601111561141d57600080fd5b858560208301376000602087830101525050509392505050565b80356001600160a01b038116811461144e57600080fd5b919050565b600060208284031215611464578081fd5b610b2582611437565b6000806040838503121561147f578081fd5b61148883611437565b915061149660208401611437565b90509250929050565b6000806000606084860312156114b3578081fd5b6114bc84611437565b92506114ca60208501611437565b9150604084013590509250925092565b600080600080608085870312156114ef578081fd5b6114f885611437565b935061150660208601611437565b925060408501359150606085013567ffffffffffffffff811115611528578182fd5b8501601f81018713611538578182fd5b611547878235602084016113c1565b91505092959194509250565b60008060408385031215611565578182fd5b61156e83611437565b915060208301358015158114611582578182fd5b809150509250929050565b6000806040838503121561159f578182fd5b6115a883611437565b9150602083013567ffffffffffffffff8111156115c3578182fd5b8301601f810185136115d3578182fd5b6115e2858235602084016113c1565b9150509250929050565b600080604083850312156115fe578182fd5b61160783611437565b946020939093013593505050565b600060208284031215611626578081fd5b8135610b258161188f565b600060208284031215611642578081fd5b8151610b258161188f565b60006020828403121561165e578081fd5b5035919050565b60008060408385031215611677578182fd5b50508035926020909101359150565b60008151808452815b818110156116ab5760208185018101518683018201520161168f565b818111156116bc5782602083870101525b50601f01601f19169290920160200192915050565b6001600160a01b038581168252841660208201526040810183905260806060820181905260009061170490830184611686565b9695505050505050565b602081526000610b256020830184611686565b60208082526032908201527f4552433732313a207472616e7366657220746f206e6f6e20455243373231526560408201527131b2b4bb32b91034b6b83632b6b2b73a32b960711b606082015260800190565b6020808252818101527f4f776e61626c653a2063616c6c6572206973206e6f7420746865206f776e6572604082015260600190565b60208082526031908201527f4552433732313a207472616e736665722063616c6c6572206973206e6f74206f6040820152701ddb995c881b9bdc88185c1c1c9bdd9959607a1b606082015260800190565b6000821982111561180c5761180c611863565b500190565b60008282101561182357611823611863565b500390565b600181811c9082168061183c57607f821691505b6020821081141561185d57634e487b7160e01b600052602260045260246000fd5b50919050565b634e487b7160e01b600052601160045260246000fd5b634e487b7160e01b600052604160045260246000fd5b6001600160e01b031981168114610bc457600080fdfea2646970667358221220c7e7307bedabc1a2ccca6d6a4bf4b9fdcc355f4d58e9a4c605ae3bf3f02da83564736f6c63430008040033",
  "linkReferences": {},
  "deployedLinkReferences": {}
}