{
  "_format": "hh-sol-artifact-1",
  "contractName": "GrabbyGrackles",
  "sourceName": "contracts/GrackleNFT.sol",
  "abi": [
    {
      "inputs": [],
      "stateMutability": "nonpayable",
      "type": "constructor"
    },
    {
      "anonymous": false,
      "inputs": [
        {
          "indexed": true,
          "internalType": "address",
          "name": "owner",
          "type": "address"
        },
        {
          "indexed": true,
          "internalType": "address",
          "name": "approved",
          "type": "address"
        },
        {
          "indexed": true,
          "internalType": "uint256",
          "name": "tokenId",
          "type": "uint256"
        }
      ],
      "name": "Approval",
      "type": "event"
    },
    {
      "anonymous": false,
      "inputs": [
        {
          "indexed": true,
          "internalType": "address",
          "name": "owner",
          "type": "address"
        },
        {
          "indexed": true,
          "internalType": "address",
          "name": "operator",
          "type": "address"
        },
        {
          "indexed": false,
          "internalType": "bool",
          "name": "approved",
          "type": "bool"
        }
      ],
      "name": "ApprovalForAll",
      "type": "event"
    },
    {
      "anonymous": false,
      "inputs": [
        {
          "indexed": true,
          "internalType": "address",
          "name": "previousOwner",
          "type": "address"
        },
        {
          "indexed": true,
          "internalType": "address",
          "name": "newOwner",
          "type": "address"
        }
      ],
      "name": "OwnershipTransferred",
      "type": "event"
    },
    {
      "anonymous": false,
      "inputs": [
        {
          "indexed": true,
          "internalType": "address",
          "name": "from",
          "type": "address"
        },
        {
          "indexed": true,
          "internalType": "address",
          "name": "to",
          "type": "address"
        },
        {
          "indexed": true,
          "internalType": "uint256",
          "name": "tokenId",
          "type": "uint256"
        }
      ],
      "name": "Transfer",
      "type": "event"
    },
    {
      "inputs": [
        {
          "internalType": "address",
          "name": "to",
          "type": "address"
        },
        {
          "internalType": "uint256",
          "name": "tokenId",
          "type": "uint256"
        }
      ],
      "name": "approve",
      "outputs": [],
      "stateMutability": "nonpayable",
      "type": "function"
    },
    {
      "inputs": [
        {
          "internalType": "address",
          "name": "owner",
          "type": "address"
        }
      ],
      "name": "balanceOf",
      "outputs": [
        {
          "internalType": "uint256",
          "name": "",
          "type": "uint256"
        }
      ],
      "stateMutability": "view",
      "type": "function"
    },
    {
      "inputs": [
        {
          "internalType": "address",
          "name": "recipient",
          "type": "address"
        },
        {
          "internalType": "uint256",
          "name": "tokenId",
          "type": "uint256"
        }
      ],
      "name": "buyNFT",
      "outputs": [],
      "stateMutability": "payable",
      "type": "function"
    },
    {
      "inputs": [
        {
          "internalType": "uint256",
          "name": "tokenId",
          "type": "uint256"
        }
      ],
      "name": "getApproved",
      "outputs": [
        {
          "internalType": "address",
          "name": "",
          "type": "address"
        }
      ],
      "stateMutability": "view",
      "type": "function"
    },
    {
      "inputs": [
        {
          "internalType": "uint256",
          "name": "tokenId",
          "type": "uint256"
        }
      ],
      "name": "getPrice",
      "outputs": [
        {
          "internalType": "uint256",
          "name": "",
          "type": "uint256"
        }
      ],
      "stateMutability": "view",
      "type": "function"
    },
    {
      "inputs": [
        {
          "internalType": "address",
          "name": "owner",
          "type": "address"
        },
        {
          "internalType": "address",
          "name": "operator",
          "type": "address"
        }
      ],
      "name": "isApprovedForAll",
      "outputs": [
        {
          "internalType": "bool",
          "name": "",
          "type": "bool"
        }
      ],
      "stateMutability": "view",
      "type": "function"
    },
    {
      "inputs": [
        {
          "internalType": "address",
          "name": "recipient",
          "type": "address"
        },
        {
          "internalType": "string",
          "name": "uri",
          "type": "string"
        },
        {
          "internalType": "uint256",
          "name": "price",
          "type": "uint256"
        }
      ],
      "name": "mint",
      "outputs": [
        {
          "internalType": "uint256",
          "name": "",
          "type": "uint256"
        }
      ],
      "stateMutability": "nonpayable",
      "type": "function"
    },
    {
      "inputs": [],
      "name": "name",
      "outputs": [
        {
          "internalType": "string",
          "name": "",
          "type": "string"
        }
      ],
      "stateMutability": "view",
      "type": "function"
    },
    {
      "inputs": [],
      "name": "owner",
      "outputs": [
        {
          "internalType": "address",
          "name": "",
          "type": "address"
        }
      ],
      "stateMutability": "view",
      "type": "function"
    },
    {
      "inputs": [
        {
          "internalType": "uint256",
          "name": "tokenId",
          "type": "uint256"
        }
      ],
      "name": "ownerOf",
      "outputs": [
        {
          "internalType": "address",
          "name": "",
          "type": "address"
        }
      ],
      "stateMutability": "view",
      "type": "function"
    },
    {
      "inputs": [],
      "name": "renounceOwnership",
      "outputs": [],
      "stateMutability": "nonpayable",
      "type": "function"
    },
    {
      "inputs": [
        {
          "internalType": "address",
          "name": "from",
          "type": "address"
        },
        {
          "internalType": "address",
          "name": "to",
          "type": "address"
        },
        {
          "internalType": "uint256",
          "name": "tokenId",
          "type": "uint256"
        }
      ],
      "name": "safeTransferFrom",
      "outputs": [],
      "stateMutability": "nonpayable",
      "type": "function"
    },
    {
      "inputs": [
        {
          "internalType": "address",
          "name": "from",
          "type": "address"
        },
        {
          "internalType": "address",
          "name": "to",
          "type": "address"
        },
        {
          "internalType": "uint256",
          "name": "tokenId",
          "type": "uint256"
        },
        {
          "internalType": "bytes",
          "name": "_data",
          "type": "bytes"
        }
      ],
      "name": "safeTransferFrom",
      "outputs": [],
      "stateMutability": "nonpayable",
      "type": "function"
    },
    {
      "inputs": [
        {
          "internalType": "address",
          "name": "operator",
          "type": "address"
        },
        {
          "internalType": "bool",
          "name": "approved",
          "type": "bool"
        }
      ],
      "name": "setApprovalForAll",
      "outputs": [],
      "stateMutability": "nonpayable",
      "type": "function"
    },
    {
      "inputs": [
        {
          "internalType": "uint256",
          "name": "tokenId",
          "type": "uint256"
        },
        {
          "internalType": "uint256",
          "name": "price",
          "type": "uint256"
        }
      ],
      "name": "setPrice",
      "outputs": [],
      "stateMutability": "nonpayable",
      "type": "function"
    },
    {
      "inputs": [
        {
          "internalType": "bytes4",
          "name": "interfaceId",
          "type": "bytes4"
        }
      ],
      "name": "supportsInterface",
      "outputs": [
        {
          "internalType": "bool",
          "name": "",
          "type": "bool"
        }
      ],
      "stateMutability": "view",
      "type": "function"
    },
    {
      "inputs": [],
      "name": "symbol",
      "outputs": [
        {
          "internalType": "string",
          "name": "",
          "type": "string"
        }
      ],
      "stateMutability": "view",
      "type": "function"
    },
    {
      "inputs": [
        {
          "internalType": "uint256",
          "name": "tokenId",
          "type": "uint256"
        }
      ],
      "name": "tokenURI",
      "outputs": [
        {
          "internalType": "string",
          "name": "",
          "type": "string"
        }
      ],
      "stateMutability": "view",
      "type": "function"
    },
    {
      "inputs": [
        {
          "internalType": "address",
          "name": "from",
          "type": "address"
        },
        {
          "internalType": "address",
          "name": "to",
          "type": "address"
        },
        {
          "internalType": "uint256",
          "name": "tokenId",
          "type": "uint256"
        }
      ],
      "name": "transferFrom",
      "outputs": [],
      "stateMutability": "nonpayable",
      "type": "function"
    },
    {
      "inputs": [
        {
          "internalType": "address",
          "name": "newOwner",
          "type": "address"
        }
      ],
      "name": "transferOwnership",
      "outputs": [],
      "stateMutability": "nonpayable",
      "type": "function"
    }
  ],
  "bytecode": "0x60806040523480156200001157600080fd5b50604080518082018252600e81526d477261626279477261636b6c657360901b60208083019182528351808501909452600584526411d1d3919560da1b9084015281519192916200006591600091620000f4565b5080516200007b906001906020840190620000f4565b50505062000098620000926200009e60201b60201c565b620000a2565b620001d7565b3390565b600680546001600160a01b038381166001600160a01b0319831681179093556040519116919082907f8be0079c531659141344cd1fd0a4f28419497f9722a3daafe3b4186f6b6457e090600090a35050565b82805462000102906200019a565b90600052602060002090601f01602090048101928262000126576000855562000171565b82601f106200014157805160ff191683800117855562000171565b8280016001018555821562000171579182015b828111156200017157825182559160200191906001019062000154565b506200017f92915062000183565b5090565b5b808211156200017f576000815560010162000184565b600181811c90821680620001af57607f821691505b60208210811415620001d157634e487b7160e01b600052602260045260246000fd5b50919050565b6118c480620001e76000396000f3fe60806040526004361061011f5760003560e01c806395d89b41116100a0578063c87b56dd11610064578063c87b56dd1461031e578063e75722301461033e578063e985e9c51461036b578063f2fde38b146103b4578063f7d97577146103d457600080fd5b806395d89b4114610296578063a22cb465146102ab578063a82ba76f146102cb578063b88d4fde146102de578063ba7aef43146102fe57600080fd5b806342842e0e116100e757806342842e0e146101f55780636352211e1461021557806370a0823114610235578063715018a6146102635780638da5cb5b1461027857600080fd5b806301ffc9a71461012457806306fdde0314610159578063081812fc1461017b578063095ea7b3146101b357806323b872dd146101d5575b600080fd5b34801561013057600080fd5b5061014461013f3660046115fe565b6103f4565b60405190151581526020015b60405180910390f35b34801561016557600080fd5b5061016e610446565b60405161015091906116f7565b34801561018757600080fd5b5061019b610196366004611636565b6104d8565b6040516001600160a01b039091168152602001610150565b3480156101bf57600080fd5b506101d36101ce3660046115d5565b610572565b005b3480156101e157600080fd5b506101d36101f036600461147f565b610688565b34801561020157600080fd5b506101d361021036600461147f565b6106b9565b34801561022157600080fd5b5061019b610230366004611636565b6106d4565b34801561024157600080fd5b5061025561025036600461142c565b61074b565b604051908152602001610150565b34801561026f57600080fd5b506101d36107d2565b34801561028457600080fd5b506006546001600160a01b031661019b565b3480156102a257600080fd5b5061016e610808565b3480156102b757600080fd5b506101d36102c6366004611533565b610817565b6101d36102d93660046115d5565b610826565b3480156102ea57600080fd5b506101d36102f93660046114ba565b610940565b34801561030a57600080fd5b5061025561031936600461156d565b610972565b34801561032a57600080fd5b5061016e610339366004611636565b6109e7565b34801561034a57600080fd5b50610255610359366004611636565b60009081526009602052604090205490565b34801561037757600080fd5b5061014461038636600461144d565b6001600160a01b03918216600090815260056020908152604080832093909416825291909152205460ff1690565b3480156103c057600080fd5b506101d36103cf36600461142c565b610b05565b3480156103e057600080fd5b506101d36103ef36600461164e565b610ba0565b60006001600160e01b031982166380ac58cd60e01b148061042557506001600160e01b03198216635b5e139f60e01b145b8061044057506301ffc9a760e01b6001600160e01b03198316145b92915050565b60606000805461045590611811565b80601f016020809104026020016040519081016040528092919081815260200182805461048190611811565b80156104ce5780601f106104a3576101008083540402835291602001916104ce565b820191906000526020600020905b8154815290600101906020018083116104b157829003601f168201915b5050505050905090565b6000818152600260205260408120546001600160a01b03166105565760405162461bcd60e51b815260206004820152602c60248201527f4552433732313a20617070726f76656420717565727920666f72206e6f6e657860448201526b34b9ba32b73a103a37b5b2b760a11b60648201526084015b60405180910390fd5b506000908152600460205260409020546001600160a01b031690565b600061057d826106d4565b9050806001600160a01b0316836001600160a01b031614156105eb5760405162461bcd60e51b815260206004820152602160248201527f4552433732313a20617070726f76616c20746f2063757272656e74206f776e656044820152603960f91b606482015260840161054d565b336001600160a01b038216148061060757506106078133610386565b6106795760405162461bcd60e51b815260206004820152603860248201527f4552433732313a20617070726f76652063616c6c6572206973206e6f74206f7760448201527f6e6572206e6f7220617070726f76656420666f7220616c6c0000000000000000606482015260840161054d565b6106838383610c3e565b505050565b6106923382610cac565b6106ae5760405162461bcd60e51b815260040161054d90611791565b610683838383610da3565b61068383838360405180602001604052806000815250610940565b6000818152600260205260408120546001600160a01b0316806104405760405162461bcd60e51b815260206004820152602960248201527f4552433732313a206f776e657220717565727920666f72206e6f6e657869737460448201526832b73a103a37b5b2b760b91b606482015260840161054d565b60006001600160a01b0382166107b65760405162461bcd60e51b815260206004820152602a60248201527f4552433732313a2062616c616e636520717565727920666f7220746865207a65604482015269726f206164647265737360b01b606482015260840161054d565b506001600160a01b031660009081526003602052604090205490565b6006546001600160a01b031633146107fc5760405162461bcd60e51b815260040161054d9061175c565b6108066000610f3f565b565b60606001805461045590611811565b610822338383610f91565b5050565b816001600160a01b0316610839826106d4565b6001600160a01b031614156108905760405162461bcd60e51b815260206004820152601860248201527f596f7520616c7265616479206f776e2074686973204e46540000000000000000604482015260640161054d565b6000818152600960205260409020546108a88361074b565b10156108ed5760405162461bcd60e51b8152602060048201526014602482015273496e73756666696369656e742062616c616e636560601b604482015260640161054d565b60006108f8826106d4565b9050610905818484610da3565b6040516001600160a01b038216903480156108fc02916000818181858888f1935050505015801561093a573d6000803e3d6000fd5b50505050565b61094a3383610cac565b6109665760405162461bcd60e51b815260040161054d90611791565b61093a84848484611060565b6006546000906001600160a01b0316331461099f5760405162461bcd60e51b815260040161054d9061175c565b6109ad600780546001019055565b60006109b860075490565b90506109c48582611093565b6109ce81856111d5565b6000818152600960205260409020929092555092915050565b6000818152600260205260409020546060906001600160a01b0316610a665760405162461bcd60e51b815260206004820152602f60248201527f4552433732314d657461646174613a2055524920717565727920666f72206e6f60448201526e3732bc34b9ba32b73a103a37b5b2b760891b606482015260840161054d565b60008281526008602052604081208054610a7f90611811565b80601f0160208091040260200160405190810160405280929190818152602001828054610aab90611811565b8015610af85780601f10610acd57610100808354040283529160200191610af8565b820191906000526020600020905b815481529060010190602001808311610adb57829003601f168201915b5093979650505050505050565b6006546001600160a01b03163314610b2f5760405162461bcd60e51b815260040161054d9061175c565b6001600160a01b038116610b945760405162461bcd60e51b815260206004820152602660248201527f4f776e61626c653a206e6577206f776e657220697320746865207a65726f206160448201526564647265737360d01b606482015260840161054d565b610b9d81610f3f565b50565b6000610bab836106d4565b90506001600160a01b0381163314610c2b5760405162461bcd60e51b815260206004820152603a60248201527f596f7520617265206e6f7420746865206f776e6572206f662074686973204e4660448201527f542c20796f752063616e27742073657420746865207072696365000000000000606482015260840161054d565b5060009182526009602052604090912055565b600081815260046020526040902080546001600160a01b0319166001600160a01b0384169081179091558190610c73826106d4565b6001600160a01b03167f8c5be1e5ebec7d5bd14f71427d1e84f3dd0314c0f7b2291e5b200ac8c7c3b92560405160405180910390a45050565b6000818152600260205260408120546001600160a01b0316610d255760405162461bcd60e51b815260206004820152602c60248201527f4552433732313a206f70657261746f7220717565727920666f72206e6f6e657860448201526b34b9ba32b73a103a37b5b2b760a11b606482015260840161054d565b6000610d30836106d4565b9050806001600160a01b0316846001600160a01b03161480610d6b5750836001600160a01b0316610d60846104d8565b6001600160a01b0316145b80610d9b57506001600160a01b0380821660009081526005602090815260408083209388168352929052205460ff165b949350505050565b826001600160a01b0316610db6826106d4565b6001600160a01b031614610e1a5760405162461bcd60e51b815260206004820152602560248201527f4552433732313a207472616e736665722066726f6d20696e636f72726563742060448201526437bbb732b960d91b606482015260840161054d565b6001600160a01b038216610e7c5760405162461bcd60e51b8152602060048201526024808201527f4552433732313a207472616e7366657220746f20746865207a65726f206164646044820152637265737360e01b606482015260840161054d565b610e87600082610c3e565b6001600160a01b0383166000908152600360205260408120805460019290610eb09084906117fa565b90915550506001600160a01b0382166000908152600360205260408120805460019290610ede9084906117e2565b909155505060008181526002602052604080822080546001600160a01b0319166001600160a01b0386811691821790925591518493918716917fddf252ad1be2c89b69c2b068fc378daa952ba7f163c4a11628f55a4df523b3ef91a4505050565b600680546001600160a01b038381166001600160a01b0319831681179093556040519116919082907f8be0079c531659141344cd1fd0a4f28419497f9722a3daafe3b4186f6b6457e090600090a35050565b816001600160a01b0316836001600160a01b03161415610ff35760405162461bcd60e51b815260206004820152601960248201527f4552433732313a20617070726f766520746f2063616c6c657200000000000000604482015260640161054d565b6001600160a01b03838116600081815260056020908152604080832094871680845294825291829020805460ff191686151590811790915591519182527f17307eab39ab6107e8899845ad3d59bd9653f200f220920489ca2b5937696c31910160405180910390a3505050565b61106b848484610da3565b611077848484846111f4565b61093a5760405162461bcd60e51b815260040161054d9061170a565b6001600160a01b0382166110e95760405162461bcd60e51b815260206004820181905260248201527f4552433732313a206d696e7420746f20746865207a65726f2061646472657373604482015260640161054d565b6000818152600260205260409020546001600160a01b03161561114e5760405162461bcd60e51b815260206004820152601c60248201527f4552433732313a20746f6b656e20616c7265616479206d696e74656400000000604482015260640161054d565b6001600160a01b03821660009081526003602052604081208054600192906111779084906117e2565b909155505060008181526002602052604080822080546001600160a01b0319166001600160a01b03861690811790915590518392907fddf252ad1be2c89b69c2b068fc378daa952ba7f163c4a11628f55a4df523b3ef908290a45050565b6000828152600860209081526040909120825161068392840190611301565b60006001600160a01b0384163b156112f657604051630a85bd0160e11b81526001600160a01b0385169063150b7a02906112389033908990889088906004016116ba565b602060405180830381600087803b15801561125257600080fd5b505af1925050508015611282575060408051601f3d908101601f1916820190925261127f9181019061161a565b60015b6112dc573d8080156112b0576040519150601f19603f3d011682016040523d82523d6000602084013e6112b5565b606091505b5080516112d45760405162461bcd60e51b815260040161054d9061170a565b805181602001fd5b6001600160e01b031916630a85bd0160e11b149050610d9b565b506001949350505050565b82805461130d90611811565b90600052602060002090601f01602090048101928261132f5760008555611375565b82601f1061134857805160ff1916838001178555611375565b82800160010185558215611375579182015b8281111561137557825182559160200191906001019061135a565b50611381929150611385565b5090565b5b808211156113815760008155600101611386565b600067ffffffffffffffff808411156113b5576113b5611862565b604051601f8501601f19908116603f011681019082821181831017156113dd576113dd611862565b816040528093508581528686860111156113f657600080fd5b858560208301376000602087830101525050509392505050565b80356001600160a01b038116811461142757600080fd5b919050565b60006020828403121561143d578081fd5b61144682611410565b9392505050565b6000806040838503121561145f578081fd5b61146883611410565b915061147660208401611410565b90509250929050565b600080600060608486031215611493578081fd5b61149c84611410565b92506114aa60208501611410565b9150604084013590509250925092565b600080600080608085870312156114cf578081fd5b6114d885611410565b93506114e660208601611410565b925060408501359150606085013567ffffffffffffffff811115611508578182fd5b8501601f81018713611518578182fd5b6115278782356020840161139a565b91505092959194509250565b60008060408385031215611545578182fd5b61154e83611410565b915060208301358015158114611562578182fd5b809150509250929050565b600080600060608486031215611581578283fd5b61158a84611410565b9250602084013567ffffffffffffffff8111156115a5578283fd5b8401601f810186136115b5578283fd5b6115c48682356020840161139a565b925050604084013590509250925092565b600080604083850312156115e7578182fd5b6115f083611410565b946020939093013593505050565b60006020828403121561160f578081fd5b813561144681611878565b60006020828403121561162b578081fd5b815161144681611878565b600060208284031215611647578081fd5b5035919050565b60008060408385031215611660578182fd5b50508035926020909101359150565b60008151808452815b8181101561169457602081850181015186830182015201611678565b818111156116a55782602083870101525b50601f01601f19169290920160200192915050565b6001600160a01b03858116825284166020820152604081018390526080606082018190526000906116ed9083018461166f565b9695505050505050565b602081526000611446602083018461166f565b60208082526032908201527f4552433732313a207472616e7366657220746f206e6f6e20455243373231526560408201527131b2b4bb32b91034b6b83632b6b2b73a32b960711b606082015260800190565b6020808252818101527f4f776e61626c653a2063616c6c6572206973206e6f7420746865206f776e6572604082015260600190565b60208082526031908201527f4552433732313a207472616e736665722063616c6c6572206973206e6f74206f6040820152701ddb995c881b9bdc88185c1c1c9bdd9959607a1b606082015260800190565b600082198211156117f5576117f561184c565b500190565b60008282101561180c5761180c61184c565b500390565b600181811c9082168061182557607f821691505b6020821081141561184657634e487b7160e01b600052602260045260246000fd5b50919050565b634e487b7160e01b600052601160045260246000fd5b634e487b7160e01b600052604160045260246000fd5b6001600160e01b031981168114610b9d57600080fdfea26469706673582212204a56c76d9dab1aba790a4b63a2d5c11a398e4f0800d90ea8f3b408db2f8b6fe064736f6c63430008040033",
  "linkReferences": {},
  "deployedLinkReferences": {}
}