{
  "_format": "hh-sol-artifact-1",
  "contractName": "GrabbyGrackles",
  "sourceName": "contracts/GrackleNFT.sol",
  "abi": [
    {
      "inputs": [],
      "stateMutability": "nonpayable",
      "type": "constructor"
    },
    {
      "anonymous": false,
      "inputs": [
        {
          "indexed": true,
          "internalType": "address",
          "name": "owner",
          "type": "address"
        },
        {
          "indexed": true,
          "internalType": "address",
          "name": "approved",
          "type": "address"
        },
        {
          "indexed": true,
          "internalType": "uint256",
          "name": "tokenId",
          "type": "uint256"
        }
      ],
      "name": "Approval",
      "type": "event"
    },
    {
      "anonymous": false,
      "inputs": [
        {
          "indexed": true,
          "internalType": "address",
          "name": "owner",
          "type": "address"
        },
        {
          "indexed": true,
          "internalType": "address",
          "name": "operator",
          "type": "address"
        },
        {
          "indexed": false,
          "internalType": "bool",
          "name": "approved",
          "type": "bool"
        }
      ],
      "name": "ApprovalForAll",
      "type": "event"
    },
    {
      "anonymous": false,
      "inputs": [
        {
          "indexed": true,
          "internalType": "address",
          "name": "previousOwner",
          "type": "address"
        },
        {
          "indexed": true,
          "internalType": "address",
          "name": "newOwner",
          "type": "address"
        }
      ],
      "name": "OwnershipTransferred",
      "type": "event"
    },
    {
      "anonymous": false,
      "inputs": [
        {
          "indexed": true,
          "internalType": "address",
          "name": "from",
          "type": "address"
        },
        {
          "indexed": true,
          "internalType": "address",
          "name": "to",
          "type": "address"
        },
        {
          "indexed": true,
          "internalType": "uint256",
          "name": "tokenId",
          "type": "uint256"
        }
      ],
      "name": "Transfer",
      "type": "event"
    },
    {
      "inputs": [
        {
          "internalType": "address",
          "name": "to",
          "type": "address"
        },
        {
          "internalType": "uint256",
          "name": "tokenId",
          "type": "uint256"
        }
      ],
      "name": "approve",
      "outputs": [],
      "stateMutability": "nonpayable",
      "type": "function"
    },
    {
      "inputs": [
        {
          "internalType": "address",
          "name": "owner",
          "type": "address"
        }
      ],
      "name": "balanceOf",
      "outputs": [
        {
          "internalType": "uint256",
          "name": "",
          "type": "uint256"
        }
      ],
      "stateMutability": "view",
      "type": "function"
    },
    {
      "inputs": [
        {
          "internalType": "address",
          "name": "recipient",
          "type": "address"
        },
        {
          "internalType": "uint256",
          "name": "tokenId",
          "type": "uint256"
        }
      ],
      "name": "buyNFT",
      "outputs": [],
      "stateMutability": "payable",
      "type": "function"
    },
    {
      "inputs": [
        {
          "internalType": "uint256",
          "name": "tokenId",
          "type": "uint256"
        }
      ],
      "name": "getApproved",
      "outputs": [
        {
          "internalType": "address",
          "name": "",
          "type": "address"
        }
      ],
      "stateMutability": "view",
      "type": "function"
    },
    {
      "inputs": [],
      "name": "getOwners",
      "outputs": [
        {
          "internalType": "address[]",
          "name": "",
          "type": "address[]"
        }
      ],
      "stateMutability": "view",
      "type": "function"
    },
    {
      "inputs": [
        {
          "internalType": "uint256",
          "name": "tokenId",
          "type": "uint256"
        }
      ],
      "name": "getPrice",
      "outputs": [
        {
          "internalType": "uint256",
          "name": "",
          "type": "uint256"
        }
      ],
      "stateMutability": "view",
      "type": "function"
    },
    {
      "inputs": [],
      "name": "getPrices",
      "outputs": [
        {
          "internalType": "uint256[]",
          "name": "",
          "type": "uint256[]"
        }
      ],
      "stateMutability": "view",
      "type": "function"
    },
    {
      "inputs": [
        {
          "internalType": "address",
          "name": "owner",
          "type": "address"
        },
        {
          "internalType": "address",
          "name": "operator",
          "type": "address"
        }
      ],
      "name": "isApprovedForAll",
      "outputs": [
        {
          "internalType": "bool",
          "name": "",
          "type": "bool"
        }
      ],
      "stateMutability": "view",
      "type": "function"
    },
    {
      "inputs": [
        {
          "internalType": "address",
          "name": "recipient",
          "type": "address"
        },
        {
          "internalType": "string",
          "name": "uri",
          "type": "string"
        },
        {
          "internalType": "uint256",
          "name": "price",
          "type": "uint256"
        }
      ],
      "name": "mint",
      "outputs": [
        {
          "internalType": "uint256",
          "name": "",
          "type": "uint256"
        }
      ],
      "stateMutability": "nonpayable",
      "type": "function"
    },
    {
      "inputs": [],
      "name": "name",
      "outputs": [
        {
          "internalType": "string",
          "name": "",
          "type": "string"
        }
      ],
      "stateMutability": "view",
      "type": "function"
    },
    {
      "inputs": [],
      "name": "owner",
      "outputs": [
        {
          "internalType": "address",
          "name": "",
          "type": "address"
        }
      ],
      "stateMutability": "view",
      "type": "function"
    },
    {
      "inputs": [
        {
          "internalType": "uint256",
          "name": "tokenId",
          "type": "uint256"
        }
      ],
      "name": "ownerOf",
      "outputs": [
        {
          "internalType": "address",
          "name": "",
          "type": "address"
        }
      ],
      "stateMutability": "view",
      "type": "function"
    },
    {
      "inputs": [],
      "name": "renounceOwnership",
      "outputs": [],
      "stateMutability": "nonpayable",
      "type": "function"
    },
    {
      "inputs": [
        {
          "internalType": "address",
          "name": "from",
          "type": "address"
        },
        {
          "internalType": "address",
          "name": "to",
          "type": "address"
        },
        {
          "internalType": "uint256",
          "name": "tokenId",
          "type": "uint256"
        }
      ],
      "name": "safeTransferFrom",
      "outputs": [],
      "stateMutability": "nonpayable",
      "type": "function"
    },
    {
      "inputs": [
        {
          "internalType": "address",
          "name": "from",
          "type": "address"
        },
        {
          "internalType": "address",
          "name": "to",
          "type": "address"
        },
        {
          "internalType": "uint256",
          "name": "tokenId",
          "type": "uint256"
        },
        {
          "internalType": "bytes",
          "name": "_data",
          "type": "bytes"
        }
      ],
      "name": "safeTransferFrom",
      "outputs": [],
      "stateMutability": "nonpayable",
      "type": "function"
    },
    {
      "inputs": [
        {
          "internalType": "address",
          "name": "operator",
          "type": "address"
        },
        {
          "internalType": "bool",
          "name": "approved",
          "type": "bool"
        }
      ],
      "name": "setApprovalForAll",
      "outputs": [],
      "stateMutability": "nonpayable",
      "type": "function"
    },
    {
      "inputs": [
        {
          "internalType": "uint256",
          "name": "tokenId",
          "type": "uint256"
        },
        {
          "internalType": "uint256",
          "name": "price",
          "type": "uint256"
        }
      ],
      "name": "setPrice",
      "outputs": [],
      "stateMutability": "nonpayable",
      "type": "function"
    },
    {
      "inputs": [
        {
          "internalType": "bytes4",
          "name": "interfaceId",
          "type": "bytes4"
        }
      ],
      "name": "supportsInterface",
      "outputs": [
        {
          "internalType": "bool",
          "name": "",
          "type": "bool"
        }
      ],
      "stateMutability": "view",
      "type": "function"
    },
    {
      "inputs": [],
      "name": "symbol",
      "outputs": [
        {
          "internalType": "string",
          "name": "",
          "type": "string"
        }
      ],
      "stateMutability": "view",
      "type": "function"
    },
    {
      "inputs": [
        {
          "internalType": "uint256",
          "name": "tokenId",
          "type": "uint256"
        }
      ],
      "name": "tokenURI",
      "outputs": [
        {
          "internalType": "string",
          "name": "",
          "type": "string"
        }
      ],
      "stateMutability": "view",
      "type": "function"
    },
    {
      "inputs": [
        {
          "internalType": "address",
          "name": "from",
          "type": "address"
        },
        {
          "internalType": "address",
          "name": "to",
          "type": "address"
        },
        {
          "internalType": "uint256",
          "name": "tokenId",
          "type": "uint256"
        }
      ],
      "name": "transferFrom",
      "outputs": [],
      "stateMutability": "nonpayable",
      "type": "function"
    },
    {
      "inputs": [
        {
          "internalType": "address",
          "name": "newOwner",
          "type": "address"
        }
      ],
      "name": "transferOwnership",
      "outputs": [],
      "stateMutability": "nonpayable",
      "type": "function"
    }
  ],
  "bytecode": "0x60806040523480156200001157600080fd5b50604080518082018252600e81526d477261626279477261636b6c657360901b60208083019182528351808501909452600584526411d1d3919560da1b9084015281519192916200006591600091620000f4565b5080516200007b906001906020840190620000f4565b50505062000098620000926200009e60201b60201c565b620000a2565b620001d7565b3390565b600680546001600160a01b038381166001600160a01b0319831681179093556040519116919082907f8be0079c531659141344cd1fd0a4f28419497f9722a3daafe3b4186f6b6457e090600090a35050565b82805462000102906200019a565b90600052602060002090601f01602090048101928262000126576000855562000171565b82601f106200014157805160ff191683800117855562000171565b8280016001018555821562000171579182015b828111156200017157825182559160200191906001019062000154565b506200017f92915062000183565b5090565b5b808211156200017f576000815560010162000184565b600181811c90821680620001af57607f821691505b60208210811415620001d157634e487b7160e01b600052602260045260246000fd5b50919050565b611b9e80620001e76000396000f3fe6080604052600436106101355760003560e01c8063a0e67e2b116100ab578063bd9a548b1161006f578063bd9a548b14610356578063c87b56dd14610378578063e757223014610398578063e985e9c5146103c5578063f2fde38b1461040e578063f7d975771461042e57600080fd5b8063a0e67e2b146102c1578063a22cb465146102e3578063a82ba76f14610303578063b88d4fde14610316578063ba7aef431461033657600080fd5b806342842e0e116100fd57806342842e0e1461020b5780636352211e1461022b57806370a082311461024b578063715018a6146102795780638da5cb5b1461028e57806395d89b41146102ac57600080fd5b806301ffc9a71461013a57806306fdde031461016f578063081812fc14610191578063095ea7b3146101c957806323b872dd146101eb575b600080fd5b34801561014657600080fd5b5061015a610155366004611838565b61044e565b60405190151581526020015b60405180910390f35b34801561017b57600080fd5b506101846104a0565b60405161016691906119b6565b34801561019d57600080fd5b506101b16101ac366004611870565b610532565b6040516001600160a01b039091168152602001610166565b3480156101d557600080fd5b506101e96101e436600461180f565b6105cc565b005b3480156101f757600080fd5b506101e96102063660046116b9565b6106e2565b34801561021757600080fd5b506101e96102263660046116b9565b610713565b34801561023757600080fd5b506101b1610246366004611870565b61072e565b34801561025757600080fd5b5061026b610266366004611666565b6107a5565b604051908152602001610166565b34801561028557600080fd5b506101e961082c565b34801561029a57600080fd5b506006546001600160a01b03166101b1565b3480156102b857600080fd5b50610184610862565b3480156102cd57600080fd5b506102d6610871565b6040516101669190611931565b3480156102ef57600080fd5b506101e96102fe36600461176d565b61093f565b6101e961031136600461180f565b61094e565b34801561032257600080fd5b506101e96103313660046116f4565b610ab6565b34801561034257600080fd5b5061026b6103513660046117a7565b610ae8565b34801561036257600080fd5b5061036b610b5d565b604051610166919061197e565b34801561038457600080fd5b50610184610393366004611870565b610c27565b3480156103a457600080fd5b5061026b6103b3366004611870565b60009081526009602052604090205490565b3480156103d157600080fd5b5061015a6103e0366004611687565b6001600160a01b03918216600090815260056020908152604080832093909416825291909152205460ff1690565b34801561041a57600080fd5b506101e9610429366004611666565b610d45565b34801561043a57600080fd5b506101e9610449366004611888565b610de0565b60006001600160e01b031982166380ac58cd60e01b148061047f57506001600160e01b03198216635b5e139f60e01b145b8061049a57506301ffc9a760e01b6001600160e01b03198316145b92915050565b6060600080546104af90611ad0565b80601f01602080910402602001604051908101604052809291908181526020018280546104db90611ad0565b80156105285780601f106104fd57610100808354040283529160200191610528565b820191906000526020600020905b81548152906001019060200180831161050b57829003601f168201915b5050505050905090565b6000818152600260205260408120546001600160a01b03166105b05760405162461bcd60e51b815260206004820152602c60248201527f4552433732313a20617070726f76656420717565727920666f72206e6f6e657860448201526b34b9ba32b73a103a37b5b2b760a11b60648201526084015b60405180910390fd5b506000908152600460205260409020546001600160a01b031690565b60006105d78261072e565b9050806001600160a01b0316836001600160a01b031614156106455760405162461bcd60e51b815260206004820152602160248201527f4552433732313a20617070726f76616c20746f2063757272656e74206f776e656044820152603960f91b60648201526084016105a7565b336001600160a01b0382161480610661575061066181336103e0565b6106d35760405162461bcd60e51b815260206004820152603860248201527f4552433732313a20617070726f76652063616c6c6572206973206e6f74206f7760448201527f6e6572206e6f7220617070726f76656420666f7220616c6c000000000000000060648201526084016105a7565b6106dd8383610e78565b505050565b6106ec3382610ee6565b6107085760405162461bcd60e51b81526004016105a790611a50565b6106dd838383610fdd565b6106dd83838360405180602001604052806000815250610ab6565b6000818152600260205260408120546001600160a01b03168061049a5760405162461bcd60e51b815260206004820152602960248201527f4552433732313a206f776e657220717565727920666f72206e6f6e657869737460448201526832b73a103a37b5b2b760b91b60648201526084016105a7565b60006001600160a01b0382166108105760405162461bcd60e51b815260206004820152602a60248201527f4552433732313a2062616c616e636520717565727920666f7220746865207a65604482015269726f206164647265737360b01b60648201526084016105a7565b506001600160a01b031660009081526003602052604090205490565b6006546001600160a01b031633146108565760405162461bcd60e51b81526004016105a790611a1b565b6108606000611179565b565b6060600180546104af90611ad0565b6060600061087e60075490565b905060008167ffffffffffffffff8111156108a957634e487b7160e01b600052604160045260246000fd5b6040519080825280602002602001820160405280156108d2578160200160208202803683370190505b50905060005b82811015610938576108ee610246826001611aa1565b82828151811061090e57634e487b7160e01b600052603260045260246000fd5b6001600160a01b03909216602092830291909101909101528061093081611b0b565b9150506108d8565b5092915050565b61094a3383836111cb565b5050565b6001600160a01b0382166109a45760405162461bcd60e51b815260206004820152601760248201527f526563697069656e742063616e2774206265206e756c6c00000000000000000060448201526064016105a7565b816001600160a01b03166109b78261072e565b6001600160a01b03161415610a0e5760405162461bcd60e51b815260206004820152601860248201527f596f7520616c7265616479206f776e2074686973204e4654000000000000000060448201526064016105a7565b600081815260096020526040902054341015610a635760405162461bcd60e51b8152602060048201526014602482015273496e73756666696369656e742062616c616e636560601b60448201526064016105a7565b6000610a6e8261072e565b9050610a7b818484610fdd565b6040516001600160a01b038216903480156108fc02916000818181858888f19350505050158015610ab0573d6000803e3d6000fd5b50505050565b610ac03383610ee6565b610adc5760405162461bcd60e51b81526004016105a790611a50565b610ab08484848461129a565b6006546000906001600160a01b03163314610b155760405162461bcd60e51b81526004016105a790611a1b565b610b23600780546001019055565b6000610b2e60075490565b9050610b3a85826112cd565b610b44818561140f565b6000818152600960205260409020929092555092915050565b60606000610b6a60075490565b905060008167ffffffffffffffff811115610b9557634e487b7160e01b600052604160045260246000fd5b604051908082528060200260200182016040528015610bbe578160200160208202803683370190505b50905060005b828110156109385760096000610bdb836001611aa1565b815260200190815260200160002054828281518110610c0a57634e487b7160e01b600052603260045260246000fd5b602090810291909101015280610c1f81611b0b565b915050610bc4565b6000818152600260205260409020546060906001600160a01b0316610ca65760405162461bcd60e51b815260206004820152602f60248201527f4552433732314d657461646174613a2055524920717565727920666f72206e6f60448201526e3732bc34b9ba32b73a103a37b5b2b760891b60648201526084016105a7565b60008281526008602052604081208054610cbf90611ad0565b80601f0160208091040260200160405190810160405280929190818152602001828054610ceb90611ad0565b8015610d385780601f10610d0d57610100808354040283529160200191610d38565b820191906000526020600020905b815481529060010190602001808311610d1b57829003601f168201915b5093979650505050505050565b6006546001600160a01b03163314610d6f5760405162461bcd60e51b81526004016105a790611a1b565b6001600160a01b038116610dd45760405162461bcd60e51b815260206004820152602660248201527f4f776e61626c653a206e6577206f776e657220697320746865207a65726f206160448201526564647265737360d01b60648201526084016105a7565b610ddd81611179565b50565b33610dea8361072e565b6001600160a01b031614610e665760405162461bcd60e51b815260206004820152603a60248201527f596f7520617265206e6f7420746865206f776e6572206f662074686973204e4660448201527f542c20796f752063616e2774207365742074686520707269636500000000000060648201526084016105a7565b60009182526009602052604090912055565b600081815260046020526040902080546001600160a01b0319166001600160a01b0384169081179091558190610ead8261072e565b6001600160a01b03167f8c5be1e5ebec7d5bd14f71427d1e84f3dd0314c0f7b2291e5b200ac8c7c3b92560405160405180910390a45050565b6000818152600260205260408120546001600160a01b0316610f5f5760405162461bcd60e51b815260206004820152602c60248201527f4552433732313a206f70657261746f7220717565727920666f72206e6f6e657860448201526b34b9ba32b73a103a37b5b2b760a11b60648201526084016105a7565b6000610f6a8361072e565b9050806001600160a01b0316846001600160a01b03161480610fa55750836001600160a01b0316610f9a84610532565b6001600160a01b0316145b80610fd557506001600160a01b0380821660009081526005602090815260408083209388168352929052205460ff165b949350505050565b826001600160a01b0316610ff08261072e565b6001600160a01b0316146110545760405162461bcd60e51b815260206004820152602560248201527f4552433732313a207472616e736665722066726f6d20696e636f72726563742060448201526437bbb732b960d91b60648201526084016105a7565b6001600160a01b0382166110b65760405162461bcd60e51b8152602060048201526024808201527f4552433732313a207472616e7366657220746f20746865207a65726f206164646044820152637265737360e01b60648201526084016105a7565b6110c1600082610e78565b6001600160a01b03831660009081526003602052604081208054600192906110ea908490611ab9565b90915550506001600160a01b0382166000908152600360205260408120805460019290611118908490611aa1565b909155505060008181526002602052604080822080546001600160a01b0319166001600160a01b0386811691821790925591518493918716917fddf252ad1be2c89b69c2b068fc378daa952ba7f163c4a11628f55a4df523b3ef91a4505050565b600680546001600160a01b038381166001600160a01b0319831681179093556040519116919082907f8be0079c531659141344cd1fd0a4f28419497f9722a3daafe3b4186f6b6457e090600090a35050565b816001600160a01b0316836001600160a01b0316141561122d5760405162461bcd60e51b815260206004820152601960248201527f4552433732313a20617070726f766520746f2063616c6c65720000000000000060448201526064016105a7565b6001600160a01b03838116600081815260056020908152604080832094871680845294825291829020805460ff191686151590811790915591519182527f17307eab39ab6107e8899845ad3d59bd9653f200f220920489ca2b5937696c31910160405180910390a3505050565b6112a5848484610fdd565b6112b18484848461142e565b610ab05760405162461bcd60e51b81526004016105a7906119c9565b6001600160a01b0382166113235760405162461bcd60e51b815260206004820181905260248201527f4552433732313a206d696e7420746f20746865207a65726f206164647265737360448201526064016105a7565b6000818152600260205260409020546001600160a01b0316156113885760405162461bcd60e51b815260206004820152601c60248201527f4552433732313a20746f6b656e20616c7265616479206d696e7465640000000060448201526064016105a7565b6001600160a01b03821660009081526003602052604081208054600192906113b1908490611aa1565b909155505060008181526002602052604080822080546001600160a01b0319166001600160a01b03861690811790915590518392907fddf252ad1be2c89b69c2b068fc378daa952ba7f163c4a11628f55a4df523b3ef908290a45050565b600082815260086020908152604090912082516106dd9284019061153b565b60006001600160a01b0384163b1561153057604051630a85bd0160e11b81526001600160a01b0385169063150b7a02906114729033908990889088906004016118f4565b602060405180830381600087803b15801561148c57600080fd5b505af19250505080156114bc575060408051601f3d908101601f191682019092526114b991810190611854565b60015b611516573d8080156114ea576040519150601f19603f3d011682016040523d82523d6000602084013e6114ef565b606091505b50805161150e5760405162461bcd60e51b81526004016105a7906119c9565b805181602001fd5b6001600160e01b031916630a85bd0160e11b149050610fd5565b506001949350505050565b82805461154790611ad0565b90600052602060002090601f01602090048101928261156957600085556115af565b82601f1061158257805160ff19168380011785556115af565b828001600101855582156115af579182015b828111156115af578251825591602001919060010190611594565b506115bb9291506115bf565b5090565b5b808211156115bb57600081556001016115c0565b600067ffffffffffffffff808411156115ef576115ef611b3c565b604051601f8501601f19908116603f0116810190828211818310171561161757611617611b3c565b8160405280935085815286868601111561163057600080fd5b858560208301376000602087830101525050509392505050565b80356001600160a01b038116811461166157600080fd5b919050565b600060208284031215611677578081fd5b6116808261164a565b9392505050565b60008060408385031215611699578081fd5b6116a28361164a565b91506116b06020840161164a565b90509250929050565b6000806000606084860312156116cd578081fd5b6116d68461164a565b92506116e46020850161164a565b9150604084013590509250925092565b60008060008060808587031215611709578081fd5b6117128561164a565b93506117206020860161164a565b925060408501359150606085013567ffffffffffffffff811115611742578182fd5b8501601f81018713611752578182fd5b611761878235602084016115d4565b91505092959194509250565b6000806040838503121561177f578182fd5b6117888361164a565b91506020830135801515811461179c578182fd5b809150509250929050565b6000806000606084860312156117bb578283fd5b6117c48461164a565b9250602084013567ffffffffffffffff8111156117df578283fd5b8401601f810186136117ef578283fd5b6117fe868235602084016115d4565b925050604084013590509250925092565b60008060408385031215611821578182fd5b61182a8361164a565b946020939093013593505050565b600060208284031215611849578081fd5b813561168081611b52565b600060208284031215611865578081fd5b815161168081611b52565b600060208284031215611881578081fd5b5035919050565b6000806040838503121561189a578182fd5b50508035926020909101359150565b60008151808452815b818110156118ce576020818501810151868301820152016118b2565b818111156118df5782602083870101525b50601f01601f19169290920160200192915050565b6001600160a01b0385811682528416602082015260408101839052608060608201819052600090611927908301846118a9565b9695505050505050565b6020808252825182820181905260009190848201906040850190845b818110156119725783516001600160a01b03168352928401929184019160010161194d565b50909695505050505050565b6020808252825182820181905260009190848201906040850190845b818110156119725783518352928401929184019160010161199a565b60208152600061168060208301846118a9565b60208082526032908201527f4552433732313a207472616e7366657220746f206e6f6e20455243373231526560408201527131b2b4bb32b91034b6b83632b6b2b73a32b960711b606082015260800190565b6020808252818101527f4f776e61626c653a2063616c6c6572206973206e6f7420746865206f776e6572604082015260600190565b60208082526031908201527f4552433732313a207472616e736665722063616c6c6572206973206e6f74206f6040820152701ddb995c881b9bdc88185c1c1c9bdd9959607a1b606082015260800190565b60008219821115611ab457611ab4611b26565b500190565b600082821015611acb57611acb611b26565b500390565b600181811c90821680611ae457607f821691505b60208210811415611b0557634e487b7160e01b600052602260045260246000fd5b50919050565b6000600019821415611b1f57611b1f611b26565b5060010190565b634e487b7160e01b600052601160045260246000fd5b634e487b7160e01b600052604160045260246000fd5b6001600160e01b031981168114610ddd57600080fdfea264697066735822122018163953f185ba62895ad4df23b786d6e37368d6589cb5752212433f8693a6b164736f6c63430008040033",
  "linkReferences": {},
  "deployedLinkReferences": {}
}